:100F07007509FF7508037B007A0079087F011209CC
:100F1700B57B007A0079087F021209B57B007A0059
:070F270079087F030209B500
:10006600750840750901E4750D80750C25F50BF5CD
:100076000A750E01750F01F510FB7A0079087F01EC
:030086000200A6CF
:100D3900E4F50A750B01F50C750DFC750E67750F59
:100D490001FB7A0079087F02120788750A01750B81
:100D590001750C01750DDC750E00750F017B007AAC
:100D69000079087F03120788750A01750B01E4F5FC
:100D79000C750DDCF50E750F01FB7A0079087F04FF
:030D8900020788D6
:100F2E00750801E4F509F50AF50B750C01F50D755B
:100F3E000E01750F02F510FB7A007908120B79E499
:020F4E00F5416B
:010F5000227E
:10002600120D39120F07120066120F2ED2AF7FC8BB
:05003600120F7480FEB2
:1009B500EFD3940540037F0122120539FED394033A
:1009C50040037F0222EF7041EE700B90000112058B
:1009D50052F452935294120539B4010B900001124E
:1009E50005524293F45294120539FEB4020A90005E
:1009F5000112055242934294EEB4030D9000011288
:100A05000552FEF45293EE4294EF640170431205D1
:100A150039FE700B900001120552F452915292EE7C
:100A2500B4010B9000011205524291F45292120545
:100A350039B4020A90000112055242914292120500
:100A450039B4030D900001120552FEF45291EE42A5
:100A550092EF64027043120539FE700B900001128B
:100A65000552F452955296EEB4010B900001120511
:100A7500524295F45296120539B4020A90000112B9
:100A8500055242954296120539B4030D90000112A4
:100A95000552FEF45295EE4296EF6403704312053B
:100AA50039FE700B900001120552F452B152B2EEAC
:100AB500B4010B90000112055242B1F452B2120575
:100AC50039B4020A90000112055242B142B2120530
:100AD50039B4030D900001120552FEF452B1EE42F5
:100AE500B2EF64047043120539FE700B90000112D9
:100AF5000552F452B352B4EEB4010B900001120545
:100B05005242B3F452B4120539B4020A90000112EC
:100B1500055242B342B4120539B4030D90000112D7
:100B25000552FEF452B3EE42B4EF6405704312056C
:100B350039FF700B900001120552F452C952CAEFE9
:100B4500B4010B90000112055242C9F452CA1205B4
:100B550039B4020A90000112055242C942CA12056F
:100B650039B4030D900001120552FFF452C9EF424A
:040B7500CA7F002211
:100B7900900001120552B4010553CE7F800343CE84
:100B890080120539B4010543CE40800353CEBF908E
:100B99000002120552B4010543CEDF800353CEDFB4
:100BA900900003120552700553CEEF800343CE1017
:100BB900900004120552B4010543CE08800353CEB8
:100BC900F7900005120552700543CE04800353CEF9
:100BD900FB900006120552B4010543AF028003538E
:100BE900AFFD9000071205525403FFE5CE54FC4FA8
:100BF900F5CE900008120552FFE5A254F34FF5A275
:010C090022C8
:0D000E008F41EF700453CEEF2243CE10223D
:10004E007467253EF8A607053EE53EC3942040039F
:04005E00E4F53E2265
:100F5100E53D653E601C7F0112000EC2927467255B
:100F61003DF8E6FF053DE53DC394204003E4F53D32
:020F71008FCF20
:010F7300225B
:03004B00020C0A9A
:100C0A00C0E0C0D075D000C000C007E5417017E54C
:100C1A003FC394204003753F00AF3F053F74472F01
:100C2A00F8A6CF754005E5416401703EE53D653E95
:100C3A006027E53FC394204003753F00AF3F053F5F
:100C4A0074472FF8A6CF7467253DF8E6F5CF053D22
:100C5A00E53DC394204013800E75410053CEEFD278
:100C6A0092753F00753E00753D0075CDC0D007D026
:060C7A0000D0D0D0E032F2
:060ED0008B198A1A891B30
:100ED600900001E412057F900003E412057F900064
:100EE60002E412057FE4FFAB19AA1AA91B900004BD
:100EF6001206FB8F82758300E412057F0FBF80E721
:010F060022C8
:0800A6008F118B128A138914DB
:1000AE00E511640160030201F175210175250175E9
:1000BE002600752700FB7A007921120ED0AB12AA0A
:1000CE0013A914120539D394C040037F02221205DE
:1000DE0039FFE598543F4FF598EF64C06008EF6420
:1000EE004060030201A29000021206CB7F007E3018
:1000FE007D2A7C001206158F188E178D168C15E42E
:10010E00FFFE7D01FCAB18AA17A916A815C312068F
:10011E00A740037F0222C3E49518F518E49517F55E
:10012E001774019516F516E49515F515AB12AA136D
:10013E00A914900001120552FB64017029C28E535E
:10014E008EFE5389BF5389CF438E40AF18AE17AD85
:10015E0016AC1578081206B88F8D85188BC2AB5366
:10016E008FFDD28E8046EB64027026538EEF438E47
:10017E0001538EF7438E04AF18AE17AD16AC15783B
:10018E00081206B88FD68518D753AFFB438E108052
:10019E001B7F0222AB12AA13A914120539FF700598
:1001AE00538EDF8007EFB4800353877FAB12AA1301
:1001BE00A914900007120552B40104D2AC8002C2F9
:1001CE00AC900006120552B40104D29C8002C29C6F
:1001DE0090000812055254C0FFE5A2543F4FF5A2FD
:1001EE007F0022E511640260030202D175280275B8
:1001FE002C01752D00752E80FB7A007928120ED0F9
:10020E00AB12AA13A914120539FF64C06005EF647E
:10021E00407075EFB4C005439A808003539A7F9067
:10022E0000021206CB7F007E307D2A7C001206155E
:10023E008F188E178D168C15E4FFFE7D01FCAB1802
:10024E00AA17A916A815C31206A740037F0222C338
:10025E00E49518F518E49517F51774019516F5162B
:10026E00E49515F515538EEF538EF7438E04AF18A4
:10027E00AE17AD16AC1578081206B88FD68518D7FE
:10028E0053AFFB438E1080037F0222AB12AA13A939
:10029E0014900007120552B4010543AF01800353B9
:1002AE00AFFE900006120552B40105439A1080036A
:1002BE00539AEF9000081205525401FFE5BA54FE0E
:1002CE00020530E51164036003020402752F037505
:1002DE003301753401753500FB7A00792F120ED07B
:1002EE00AB12AA13A914120539FF64C06008EF649B
:1002FE004060030203C753ACDFEFB4C00543AC80CC
:10030E00800353AC7FAB12AA13A9149000021206FD
:10031E00CB7F007E307D2A7C001206158F188E173B
:10032E008D168C15E4FFFE7D01FCAB18AA17A916DD
:10033E00A815C31206A740037F0222C3E49518F541
:10034E0018E49517F51774019516F516E49515F53D
:10035E0015AB12AA13A914900001120552FB6402E8
:10036E00702653ACBF538EEF538EF7438E04AF18E7
:10037E00AE17AD16AC1578081206B88FD68518D7FD
:10038E0053AFFB438E108034EB6403702943AC40B3
:10039E0053D1F053AFDF43D10253D1FB53D1FEAF54
:1003AE0018AE17AD16AC1578081206B88FD485188E
:1003BE00D543D10880067F02227F0222AB12AA13F8
:1003CE00A914900007120552B4010543AF0880032B
:1003DE0053AFF7900006120552B4010543AC1080DE
:1003EE000353ACEF9000081205525402FFE5BA54C5
:1003FE00FD020530E511640460030205367536040E
:10040E00753A01753B01753C80FB7A007936120E08
:10041E00D0AB12AA13A914120539FF64C06008EFFD
:10042E00644060030204F85384DFEFB4C0054384D4
:10043E0080800353847FAB12AA13A914900002127A
:10044E0006CB7F007E307D2A7C001206158F188E1B
:10045E00178D168C15E4FFFE7D01FCAB18AA17A9AB
:10046E0016A815C31206A740037F0222C3E49518EF
:10047E00F518E49517F51774019516F516E495150C
:10048E00F515AB12AA13A914900001120552FB64C4
:10049E000270265384BF538EEF538EF7438E04AFF4
:1004AE0018AE17AD16AC1578081206B88FD685188B
:1004BE00D753AFFB438E108034EB64047029438412
:1004CE004053D10F53AFBF43D12053D1BF53D1EFC0
:1004DE00AF18AE17AD16AC1578081206B88FD285C8
:1004EE0018D343D18080067F02227F0222AB12AA4C
:1004FE0013A914900007120552B4010543AF1080E2
:10050E000353AFEF900006120552B4010543841059
:10051E0080035384EF9000081205525404FFE5BA8D
:0A052E0054FB4FF5BA7F00227F0353
:0105380022A0
:100D8C00120539FE604BBF010E752401F599E5245F
:100D9C00D39400403380F7BF020E752B018E9BE578
:100DAC002BD39400402280F7BF030E7532018EAD19
:100DBC00E532D39400401180F7BF040C7539018ED5
:100DCC0085E539D3940050F9740129F9E43AFA8095
:020DDC00AF2244
:03002300020E9832
:100E9800C0E0C083C082C0D030981CC298740025BE
:100EA80023F582E43400F583E599F00523E523C3AF
:100EB80094804003752300309905C299752400D0A9
:080EC800D0D082D083D0E032CB
:03004300020DDECD
:100DDE00C0E0C083C082C0D0E59A30E01D539AFEB9
:100DEE007480252AF582E43400F583E59BF0052A0C
:100DFE00E52AC394804003752A00E59A30E1065334
:0E0E0E009AFD752B00D0D0D082D083D0E03278
:03008B00020E1C46
:100E1C00C0E0C083C082C0D0E5AC30E01D53ACFE56
:100E2C0074002531F582E43401F583E5ADF005312C
:100E3C00E531C394804003753100E5AC30E10653D5
:0E0E4C00ACFD753200D0D0D082D083D0E03221
:03009300020E5A00
:100E5A00C0E0C083C082C0D0E58430E01D5384FE68
:100E6A0074802538F582E43401F583E585F0053888
:100E7A00E538C394804003753800E58430E10653B1
:0E0E8A0084FD753900D0D0D082D083D0E03204
:0F0F74007D527C03ED1D70011C144C70F7DFF1F2
:010F8300224B
:03000B00020003ED
:0100030032CA
:03001B00020004DC
:0100040032C9
:0300630002000593
:0100050032C8
:03009B00020C80D4
:100C8000C0E0C0F0C083C082C0D075D000C000C03A
:0D0C900001C002C003C004C005C006C007BB
:100C9D000543E5437002054264334542701DF5423C
:100CAD00F543B2B47FF012004EE4FF12004EE4FFA4
:0B0CBD0012004EE4FF12004E120F5117
:100CC800D007D006D005D004D003D002D001D00080
:0B0CD800D0D0D082D083D0F0D0E0322A
:0300A300020CE369
:100CE300C0E0C0F0C083C082C0D075D000C000C0D7
:0D0CF30001C002C003C004C005C006C00758
:100D00000545E54570020544646545447010F544A9
:0E0D1000F545B2B4FB7A0079477F01120D8CD5
:100D1E00D007D006D005D004D003D002D001D00029
:0B0D2E00D0D0D082D083D0F0D0E032D3
:10078800AD07EDD3940440037F0122ED7073120589
:1007980039FED3940340037F0222C28CC2A9C2B996
:1007A8005389F0538E7F538FFE900002120552B486
:1007B8000102D2A9900001120552B40102D2B9EE89
:1007C8004289900003120552FF7003438E80EFB4F4
:1007D8000203438904900004120552B40103438FB5
:1007E800019000051205A1E5F0F58C9000051205B1
:1007F800A1F58A900007120552B40102D28C7F003D
:1008080022ED64017076120539FEC3940340037F1C
:100818000222C28EC2ABC2BB53890F538EBF538F05
:10082800FD900002120552B40102D2AB90000112F1
:100838000552B40102D2BBEEC454F04289900003C1
:10084800120552FF7003438E40EFB4020343894000
:10085800900004120552B40103438F029000051260
:1008680005A1E5F0F58D9000051205A1F58B900026
:1008780007120552B40102D28E7F0022ED64027085
:1008880063900003120552FED3940240037F0222B4
:10089800538EE353AFFB538FFB900002120552B403
:1008A800010343AF04EE7003438E04900003120566
:1008B80052B40203438E08900004120552B4010397
:1008C800438F049000051205A1E5F0F5D6900005C8
:1008D8001205A1F5D7900007120552B40103438E03
:1008E800107F0022ED64037060900003120552FE31
:1008F800D3940240037F022253D1F053AFDF90001C
:1009080002120552B4010343AF20EE700343D10233
:10091800900003120552B4020343D106900004125A
:100928000552B4010343D1019000051205A1E5F079
:10093800F5D49000051205A1F5D5900007120552CF
:10094800B4010343D1087F0022ED6404705C900079
:1009580003120552FED3940240037F022253D10FA3
:1009680053AFBF900002120552B4010343AF40EEEB
:10097800700343D120900003120552B4020343D1FF
:1009880060900004120552B4010343D11090000591
:100998001205A1FDACF0ECF5D28DD390000712053D
:0D09A80052B4010343D1807F00227F022260
:03000000020F8468
:0C0F8400787FE4F6D8FD75818602002617
:10053900BB010689828A83E0225002E722BBFE02C0
:09054900E32289828A83E49322F3
:10055200BB010CE58229F582E5833AF583E022505E
:1005620006E92582F8E622BBFE06E92582F8E222A8
:0D057200E58229F582E5833AF583E49322C2
:10057F00F8BB010DE58229F582E5833AF583E8F0B2
:10058F00225006E92582C8F622BBFE05E92582C85E
:02059F00F22246
:1005A100BB0110E58229F582E5833AF583E0F5F098
:1005B100A3E0225009E92582F886F008E622BBFE75
:1005C1000AE92582F8E2F5F008E222E5832AF583BB
:0805D100E993F5F0A3E9932280
:1005D90075F008758200EF2FFFEE33FECD33CDCCD9
:1005E90033CCC58233C5829BED9AEC99E58298405C
:1005F9000CF582EE9BFEED9AFDEC99FC0FD5F0D639
:10060900E4CEFBE4CDFAE4CCF9A88222B800C1B962
:100619000059BA002DEC8BF084CFCECDFCE5F0CBA0
:10062900F97818EF2FFFEE33FEED33FDEC33FCEBD9
:1006390033FB10D703994004EB99FB0FD8E5E4F994
:10064900FA227818EF2FFFEE33FEED33FDEC33FC81
:10065900C933C910D7059BE99A4007EC9BFCE99A75
:10066900F90FD8E0E4C9FAE4CCFB2275F010EF2FBA
:10067900FFEE33FEED33FDCC33CCC833C810D707BA
:100689009BEC9AE899400AED9BFDEC9AFCE899F8F5
:0E0699000FD5F0DAE4CDFBE4CCFAE4C8F92288
:1006A700EB9FF5F0EA9E42F0E99D42F0E89C45F0A9
:0106B7002220
:1006B800E8600FECC313FCED13FDEE13FEEF13FF20
:0306C800D8F12244
:1006CB00BB010DE58229F582E5833AF583020738F4
:1006DB005007E92582F802072BBBFE07E92582F8B4
:1006EB00020744E58229F582E5833AF58302075137
:1006FB00BB010DE58229F582E5833AF58302076A92
:10070B005007E92582F8020761BBFE07E92582F84D
:10071B00020773E58229F582E5833AF58302077CAC
:0D072B00E6FB08E6F908E6FA08E6CBF8223E
:0C073800E0F8A3E0F9A3E0FAA3E0FB2244
:0D074400E2FB08E2F908E2FA08E2CBF82235
:10075100E493F8740193F9740293FA740393FB22FE
:09076100E6FB08E6FA08E6F922BD
:09076A00E0FBA3E0FAA3E0F92290
:09077300E2FB08E2FA08E2F922B7
:0C077C00E493FB740193FA740293F922D9
:00000001FF
