:100B31007509FF7508037B007A0079087F011207A8
:100B4100537B007A0079087F021207537B007A00F9
:070B510079087F030207533E
:100B5800750840750901E4750D80750C25F50BF5D0
:100B68000A750E01750F01F510FB7A0079087F01EF
:030B78000202F581
:100A0400750A01750B01E4F50C750DFC750E67751F
:100A14000F01FB7A0079087F02120526750A017519
:100A24000B01E4F50C750DEEF50E750F01FB7A0064
:100A340079087F03120526750A01750B01E4F50C8C
:100A4400750DDCF50E750F01FB7A0079087F040241
:020A5400052675
:100B7B00750801E4F509F50AF50B750C01F50D7512
:100B8B000E01750F02F510FB7A007908120917E4B4
:020B9B00F54122
:010B9D002235
:100B0300120B31120B58120A04120B7BD2AFE4F50D
:100B13003DF53EF53F7F1F12004EE4FF12004EE409
:0E0B2300FF12004E120B9E7FFA120BC180E0F3
:10075300EFD3940540037F01221200A6FED3940336
:1007630040037F0222EF7041EE700B9000011200F4
:10077300BFF4529352941200A6B4010B90000112DD
:1007830000BF4293F452941200A6FEB4020A9000F2
:10079300011200BF42934294EEB4030D9000011284
:1007A30000BFFEF45293EE4294EF640170431200D3
:1007B300A6FE700B9000011200BFF452915292EE0C
:1007C300B4010B9000011200BF4291F45292120047
:1007D300A6B4020A9000011200BF42914292120095
:1007E300A6B4030D9000011200BFFEF45291EE4235
:1007F30092EF640270431200A6FE700B9000011288
:1008030000BFF452955296EEB4010B900001120012
:10081300BF4295F452961200A6B4020A9000011248
:1008230000BF429542961200A6B4030D9000011238
:1008330000BFFEF45295EE4296EF6403704312003C
:10084300A6FE700B9000011200BFF452B152B2EE3B
:10085300B4010B9000011200BF42B1F452B2120076
:10086300A6B4020A9000011200BF42B142B21200C4
:10087300A6B4030D9000011200BFFEF452B1EE4284
:10088300B2EF640470431200A6FE700B90000112D5
:1008930000BFF452B352B4EEB4010B900001120046
:1008A300BF42B3F452B41200A6B4020A900001127C
:1008B30000BF42B342B41200A6B4030D900001126C
:1008C30000BFFEF452B3EE42B4EF6405704312006E
:1008D300A6FF700B9000011200BFF452C952CAEF79
:1008E300B4010B9000011200BF42C9F452CA1200B6
:1008F300A6B4020A9000011200BF42C942CA120004
:10090300A6B4030D9000011200BFFFF452C9EF42D9
:04091300CA7F002275
:100917009000011200BFB4010553CE7F800343CE80
:10092700801200A6B4010543CE40800353CEBF908A
:1009370000021200BFB4010543CEDF800353CEDFB0
:100947009000031200BF700553CEEF800343CE1013
:100957009000041200BFB4010543CE08800353CEB4
:10096700F79000051200BF700543CE04800353CEF5
:10097700FB9000061200BFB4010543AF028003538A
:10098700AFFD9000071200BF5403FFE5CE54FC4FA4
:10099700F5CE9000081200BFFFE5A254F34FF5A271
:0109A700222D
:0D000E008F41EF700453CEEF2243CE10223D
:10004E007462253EF8A607053EE53EC394204003A4
:04005E00E4F53E2265
:100B9E00E53D653E601C7F0112000EC29274622517
:100BAE003DF8E6FF053DE53DC394204003E4F53DE9
:020BBE008FCFD7
:010BC0002212
:03004B000209A8FF
:1009A800C0E0C0D075D000C000C007E5417017E5B1
:1009B8003FC394204003753F00AF3F053F74422F6B
:1009C800F8A6CF754005E54164017024E53D653E14
:1009D80060167462253DF8E6F5CF053DE53DC39404
:1009E80020400D753D00800875410053CEEFD2922E
:0C09F80075CDC0D007D000D0D0D0E032C8
:060ACC008B198A1A891B38
:100AD200900001E41200EC900003E41200EC90009C
:100AE20002E41200ECE4FFAB19AA1AA91B9000045D
:100AF2001202688F82758300E41200EC0FBF80E758
:010B020022D0
:0802F5008F118B128A1389148A
:1002FD00E511640160030204407521017525017546
:10030D002600752700FB7A007921120ACCAB12AAC0
:10031D0013A9141200A6D394C040037F0222120029
:10032D00A6FFE598543F4FF598EF64C06008EF6461
:10033D004060030203F19000021202387F007E300C
:10034D007D2A7C001201828F188E178D168C15E474
:10035D00FFFE7D01FCAB18AA17A916A815C3120242
:10036D001440037F0222C3E49518F518E49517F5A0
:10037D001774019516F516E49515F515AB12AA131C
:10038D00A9149000011200BFFB64017029C28E53A5
:10039D008EFE5389BF5389CF438E40AF18AE17AD34
:1003AD0016AC1578081202258F8D85188BC2AB53AC
:1003BD008FFDD28E8046EB64027026538EEF438EF6
:1003CD0001538EF7438E04AF18AE17AD16AC1578EA
:1003DD00081202258FD68518D753AFFB438E108098
:1003ED001B7F0222AB12AA13A9141200A6FF7005DF
:1003FD00538EDF8007EFB4800353877FAB12AA13B0
:10040D00A9149000071200BFB40104D2AC8002C23F
:10041D00AC9000061200BFB40104D29C8002C29CB5
:10042D009000081200BF54C0FFE5A2543F4FF5A243
:10043D007F0022E511640260030205237528027511
:10044D002C01752D00752E80FB7A007928120ACCAF
:10045D00AB12AA13A9141200A6FF64C06005EF64C5
:10046D00407075EFB4C005439A808003539A7F9016
:10047D0000021202387F007E307D2A7C001201823C
:10048D008F188E178D168C15E4FFFE7D01FCAB18B1
:10049D00AA17A916A815C312021440037F0222C37E
:1004AD00E49518F518E49517F51774019516F516DA
:1004BD00E49515F515538EEF538EF7438E04AF1853
:1004CD00AE17AD16AC1578081202258FD68518D744
:1004DD0053AFFB438E1080037F0222AB12AA13A9E8
:1004ED00149000071200BFB4010543AF0180035300
:1004FD00AFFE9000061200BFB40105439A108003B1
:10050D00539AEF9000081200BF5401FFE5BA54FE54
:08051D004FF5BA7F00227F03B5
:0105250022B3
:100066001200A6FE6029BF010E752401F599E5244C
:10007600D39400401180F7BF020C752B018E9BE5CF
:100086002BD3940050F9740129F9E43AFA80D1226D
:03002300020A943A
:100A9400C0E0C083C082C0D030981CC298740025C6
:100AA40023F582E43400F583E599F00523E523C3B7
:100AB40094804003752300309905C299752400D0B1
:080AC400D0D082D083D0E032D3
:03004300020A5658
:100A5600C0E0C083C082C0D0E59A30E01D539AFE44
:100A66007480252AF582E43400F583E59BF0052A97
:100A7600E52AC394804003752A00E59A30E10653BF
:0E0A86009AFD752B00D0D0D082D083D0E03204
:0F0BC1007D527C03ED1D70011C144C70F7DFF1A9
:010BD0002202
:03000B00020003ED
:03000300B2B03266
:03001B00020006DA
:03000600B2B13262
:0300630002001E7A
:03001E00B2B23249
:03009B0002003F21
:03003F00B2B33227
:0300A30002002632
:02002600C0E038
:10002800051DE51D7002051C6465451C7006F51C60
:04003800F51DB2B44C
:03003C00D0E032DF
:10052600AD07EDD3940440037F0122ED70731200F2
:10053600A6FED3940340037F0222C28CC2A9C2B98D
:100546005389F0538E7F538FFE9000021200BFB482
:100556000102D2A99000011200BFB40102D2B9EE85
:1005660042899000031200BFFF7003438E80EFB4F0
:1005760002034389049000041200BFB40103438FB1
:100586000190000512010EE5F0F58C9000051201B0
:100596000EF58A9000071200BFB40102D28C7F00CC
:1005A60022ED640170761200A6FEC3940340037F19
:1005B6000222C28EC2ABC2BB53890F538EBF538F6A
:1005C600FD9000021200BFB40102D2AB90000112EE
:1005D60000BFB40102D2BBEEC454F04289900003BE
:1005E6001200BFFF7003438E40EFB40203438940FD
:1005F6009000041200BFB40103438F02900005125D
:10060600010EE5F0F58D90000512010EF58B9000B8
:10061600071200BFB40102D28E7F0022ED64027081
:10062600639000031200BFFED3940240037F0222B0
:10063600538EE353AFFB538FFB9000021200BFB4FF
:10064600010343AF04EE7003438E049000031200CF
:10065600BFB40203438E089000041200BFB4010326
:10066600438F0490000512010EE5F0F5D6900005C3
:1006760012010EF5D79000071200BFB40103438E96
:10068600107F0022ED640370609000031200BFFE2D
:10069600D3940240037F022253D1F053AFDF900080
:1006A600021200BFB4010343AF20EE700343D10230
:1006B6009000031200BFB4020343D1069000041257
:1006C60000BFB4010343D10190000512010EE5F00D
:1006D600F5D490000512010EF5D59000071200BF63
:1006E600B4010343D1087F0022ED6404705C9000DE
:1006F600031200BFFED3940240037F022253D10FA0
:1007060053AFBF9000021200BFB4010343AF40EEE7
:10071600700343D1209000031200BFB4020343D1FB
:10072600609000041200BFB4010343D1109000058D
:1007360012010EFDACF0ECF5D28DD390000712003D
:0D074600BFB4010343D1807F00227F022257
:03000000020BD11F
:0C0BD100787FE4F6D8FD758181020B03EB
:1000A600BB010689828A83E0225002E722BBFE0258
:0900B600E32289828A83E493228B
:1000BF00BB010CE58229F582E5833AF583E02250F6
:1000CF0006E92582F8E622BBFE06E92582F8E22240
:0D00DF00E58229F582E5833AF583E493225A
:1000EC00F8BB010DE58229F582E5833AF583E8F04A
:1000FC00225006E92582C8F622BBFE05E92582C8F6
:02010C00F222DD
:10010E00BB0110E58229F582E5833AF583E0F5F02F
:10011E00A3E0225009E92582F886F008E622BBFE0C
:10012E000AE92582F8E2F5F008E222E5832AF58352
:08013E00E993F5F0A3E9932217
:1001460075F008758200EF2FFFEE33FECD33CDCC70
:1001560033CCC58233C5829BED9AEC99E5829840F3
:100166000CF582EE9BFEED9AFDEC99FC0FD5F0D6D0
:10017600E4CEFBE4CDFAE4CCF9A88222B800C1B9FA
:100186000059BA002DEC8BF084CFCECDFCE5F0CB38
:10019600F97818EF2FFFEE33FEED33FDEC33FCEB71
:1001A60033FB10D703994004EB99FB0FD8E5E4F92C
:1001B600FA227818EF2FFFEE33FEED33FDEC33FC19
:1001C600C933C910D7059BE99A4007EC9BFCE99A0D
:1001D600F90FD8E0E4C9FAE4CCFB2275F010EF2F52
:1001E600FFEE33FEED33FDCC33CCC833C810D70752
:1001F6009BEC9AE899400AED9BFDEC9AFCE899F88D
:0E0206000FD5F0DAE4CDFBE4CCFAE4C8F9221F
:10021400EB9FF5F0EA9E42F0E99D42F0E89C45F040
:0102240022B7
:10022500E8600FECC313FCED13FDEE13FEEF13FFB7
:03023500D8F122DB
:10023800BB010DE58229F582E5833AF5830202A523
:100248005007E92582F8020298BBFE07E92582F8E3
:100258000202B1E58229F582E5833AF5830202BEFE
:10026800BB010DE58229F582E5833AF5830202D7C1
:100278005007E92582F80202CEBBFE07E92582F87D
:100288000202E0E58229F582E5833AF5830202E974
:0D029800E6FB08E6F908E6FA08E6CBF822D6
:0C02A500E0F8A3E0F9A3E0FAA3E0FB22DC
:0D02B100E2FB08E2F908E2FA08E2CBF822CD
:1002BE00E493F8740193F9740293FA740393FB2296
:0902CE00E6FB08E6FA08E6F92255
:0902D700E0FBA3E0FAA3E0F92228
:0902E000E2FB08E2FA08E2F9224F
:0C02E900E493FB740193FA740293F92271
:00000001FF
